:1000030020202020202020202020202020202020ED
:10001300003230002D00C8D500C1F900CEE500CB79
:10002300C400B6FE00D2BB00D0C7C6DA00B8FD00DC
:10003300D0C100C8C900B9EF00BCD700D2D200B10B
:10004300FB00B6A100CEEC00D2D100B3BD00CBC8FB
:1000530000CEE700CEB400C9EA00D3CF00D0E7005A
:10006300BAA500D7D300B3F300D2FA00C3AE00C1E0
:10007300FAC4EA00C9DFC4EA00C2EDC4EA00D1F25F
:10008300C4EA00BAEFC4EA00BCA6C4EA00B9B7C424
:10009300EA00D6EDC4EA00CAF3C4EA00C5A3C4EA81
:1000A30000BBA2C4EA00CDC3C4EA00D5FD00C6DF8D
:1000B30000B0CB00BEC500CAAE00B6AC00C0B000F5
:1000C300D4C200B3F500D8A500B0AEC9D0C4E3BB19
:1000D300E9C7EC00B6ABC3C5B7BBBBE9B2A9BBE18B
:1000E30000C8C8CFDF313334383633323436323197
:1000F30000D0DEB8C4A3BA323031392D31312D33BB
:100103003000C4EA00CAB100B7D600C3EB00A1EFC8
:10011300B5F7D5FB00C3EBD6D300B7D6D6D300D003
:10012300A1CAB100C8D5C6DA00D4C2B7DD00C4EA9B
:10013300B7DD0000000FF01FF83FFC7FFE7C3E7828
:100143001E781E781E781E783E783E785E785E783C
:100153009E789E791E791E7A1E7A1E7C1E7C1E78DE
:100163001E781E781E781E7C3E7FFE3FFC1FF80F14
:10017300F0000000000038007800F801F801F800F2
:1001830078007800780078007800780078007800AC
:10019300780078007800780078007800780078009C
:1001A300780078007800780078007800780078008C
:1001B30078000000000FF01FF83FFC7FFE7C3E78C4
:1001C3001E781E781E781E781E781E783E007E00EC
:1001D300FC01F803F007E00FC01F803F007E007CA6
:1001E30000780078007800781E7FFE7FFE7FFE7F18
:1001F300FE000000000FF01FF83FFC7FFE7C3E78FE
:100203001E781E781E781E781E001E001E003E0FEC
:10021300FC0FF80FF80FFC003E001E001E781E783E
:100223001E781E781E781E7C3E7FFE3FFC1FF80F53
:10023300F000000000001C003C007C007C00FC017E
:10024300FC01FC03FC07BC07BC0F3C0F3C1E3C1E1F
:100253003C3C3C3C3C783C783C783C7FFE7FFE7FDA
:10026300FE7FFE003C003C003C003C003C003C00A8
:100273003C000000007FFE7FFE7FFE7FFE7800785B
:10028300007800780078007BF07FF87FFC7FFE7EAB
:100293003E7C1E7C1E001E001E001E781E781E78EB
:1002A3001E781E781E781E7C3E7FFE3FFC1FF80FD3
:1002B300F0000000000FF01FF83FFC7FFE7C3E784B
:1002C3001E781E781E7800780078007BF07FF87F18
:1002D300FC7FFE7C3E781E781E781E781E781E7882
:1002E3001E781E781E781E7C3E7FFE3FFC1FF80F93
:1002F300F0000000007FFE7FFE7FFE7FFE781E0081
:100303001E003C003C0078007800F000F001E001A2
:10031300E003C003C00780078007800780078007CA
:100323008007800780078007800780078007800792
:1003330080000000000FF01FF83FFC7FFE7C3E783A
:100343001E781E781E781E781E781E7C3E3FFC1F8A
:10035300F81FF83FFC7C3E781E781E781E781E78C6
:100363001E781E781E781E7C3E7FFE3FFC1FF80F12
:10037300F0000000000FF01FF83FFC7FFE7C3E788A
:100383001E781E781E781E781E781E781E781E78BA
:100393001E7C3E7FFE3FFE1FFE0FDE001E001E0082
:1003A3001E781E781E781E7C3E7FFE3FFC1FF80FD2
:1003B300F000000000000000000000000000000743
:1003C300E007E007E007E007E007E00000000000C7
:1003D300000000000000000000000007E007E00745
:1003E300E007E007E007E000000000000000000075
:1003F30000000000003000480049C033E806380C14
:10040300180C080C000C000C000C0006080310016B
:10041300E0000000000180024002C0024002C0026E
:100423004002C0024003C007E00FF00FF007E003F3
:10043300C0000000000000000000000000000000F9
:1004430000000000000000000000000000000000A9
:100453000000000A9345474AB906AA4C0AD541242D
:10046300DAB604B64A69573D0A4E510D26465E93E5
:100473003A0D534D05AA4336B537096D4BB4AEBF9C
:1004830004AD530A4D486D25BC0D254F0D52445DF7
:10049300AA380B5A4C056D4124ADB6049B4A7A4BDE
:1004A300BE0A4B510AA5465B52BA06D24E0ADA423D
:1004B300355B3709374B8497C1049753064B48661E
:1004C300A53C0EA54F06B2444AB6380AAE4C092ED7
:1004D300423C97350C96497D4ABD0D4A510DA545C1
:1004E30055AABA056A4E0A6D43452EB7052D4B8AA8
:1004F30095BF0A95530B4A476B553B0AD54F055A8F
:10050300454A5D380A5B4C052B423A93B60693493C
:100513007729BD06AA510AD54654DABA04B64E0A5B
:1005230057434527380D264A8E933E0D52520DAA46
:100533004766B53B056D4F04AE454A4EB90A4D4C6F
:100543000D15412D92B5001F3B5A7897B5D4F30191
:10055300110130014E0003030601040602050003E6
:010563000592
:04186200C102C103FB
:1017F900C2B3D2B4D2B57590FFE5905480648060CD
:04180900F8C2B5224A
:0717CF007F301217D67F06E0
:0E17D6001217F9C2B3C2B4D2B58F90C2B522B9
:06180D00C4540F2430FF5B
:0E1813001217F9D2B3C2B4D2B58F90C2B5226B
:061776007BFF7A00791CE4
:10177C001215FEFFD3940074809480400C12181341
:0A178C00740129F9E43AFA80E7221B
:07182100C4540F2430F50A46
:0C182800AF0A2004030217D61218132286
:05185D007F010217D617
:10172600C204750A801218287BFF7A007903121703
:101736007CC204750A901218287A00790312177C65
:0F174600C204750A881218287A00790302177CEA
:1017E4007F301217D67F0C1217D612185D7F06129F
:0517F40017D6021726C4
:0611EC008F138D148B151A
:1011F2007F361217D6AF14EF64016005EF640270F8
:101202000B751980E51414C454F0F514AF14EF648F
:10121200036005EF6404700C751988E51424FDC49D
:1012220054F0F514E4FEEEC394107480948050538D
:10123200E51424802EFF1217D6E519251314FF1288
:1012420017D6E4FDEDC39402748094805032E51504
:1012520064017014AB160518E518AA177002051779
:1012620014F91215FEF48011AB160518E518AA1729
:101272007002051714F91215FEFF1218130D80C41F
:081282000E80A37F360217D68F
:061755008F1A8D1B8B1C96
:10175B007A0379F6E51D75F020A429F9EA35F075C1
:0B176B0016FFF5178918AF1A0211ECE9
:100F1E00C4540F75F040A42436F9740135F0FA7BF1
:010F2E00FFC3
:080F2F008F098B0A8A0B890C63
:100F3700ED24FE600A14600C2402600302103A7567
:100F47000E808003750E88E50E250914F50F7F3690
:100F57001217D6EDFB64016005EB64037042E4FEF3
:100F6700EEC39420748094805036EE2480FF1217CD
:100F7700D6AF0F1217D6E4F50DE50DC394027480B2
:100F870094805019AB0A050CE50CAA0B7002050BEF
:100F970014F91215FEFF121813050D80DC0E80C020
:100FA700ED64026003021035FEEEC3941074809462
:100FB700805036EE2490FF1217D6AF0F1217D6E4E3
:100FC700F50DE50DC39402748094805019AB0A05A2
:100FD7000CE50CAA0B7002050B14F91215FEFF1293
:100FE7001813050D80DC0E80C0E4FEEEC394107468
:100FF7008094805039EE2480FF1217D6E50F24081D
:10100700FF1217D6E4F50DE50DC3940274809480A2
:101017005019AB0A050CE50CAA0B7002050B14F965
:101027001215FEFF121813050D80DC0E80BD7F36EA
:031037001217D6B7
:01103A002293
:0D1843007F301217D67F0C1217D102185DEE
:0316710012185DEF
:101674007F361217D61218437F361217D6E4FEEEC1
:10168400C39420748094805026EE2480FF1217D6D1
:101694007F801217D6E4FDEDC394107480948050BB
:0F16A4000BE4FF1218131218130D80EB0E80D0F9
:0116B3002214
:10158B007FC1121850EF64AA6046E4FD7F8E1218DB
:10159B00347D197F8C1218347D037F8A1218347DA9
:1015AB00127F881218347D187F861218347D137FB2
:1015BB00841218347D187F82121834E4FD7F801258
:1015CB0018347DAA7FC01218347D807F8E12183498
:0115DB0022ED
:0F1834008D0A121629AF0A12162FC2A5D2A622AC
:06162900C2A6C2A5D2A575
:10162F00EFA2E092A7D2A6C2A6A2E192A7D2A6C22B
:10163F00A6A2E292A7D2A6C2A6A2E392A7D2A6C260
:10164F00A6A2E492A7D2A6C2A6A2E592A7D2A6C24C
:10165F00A6A2E692A7D2A6C2A6A2E792A7D2A6C238
:02166F00A622B1
:1016B400D2A7A2A792E0D2A6C2A6A2A792E1D2A6DE
:1016C400C2A6A2A792E2D2A6C2A6A2A792E3D2A6DB
:1016D400C2A6A2A792E4D2A6C2A6A2A792E5D2A6C7
:1016E400C2A6A2A792E6D2A6C2A6A2A792E7FF220A
:0C185000E4FE1216291216B4C2A5D2A69E
:01185C002269
:060DC500AD12AC11AF0EEF
:100DCB00EF14B40D004003020F1B900DE375F003FD
:100DDB00A4C58325F0C58373020E0A020E1F020EF3
:100DEB0034020E49020E5E020E73020E88020E9D35
:100DFB00020EB2020EC7020EDC020EF1020F0674D7
:100E0B00562DF58274043CF583E49354087002FF6D
:100E1B00227F012274562DF58274043CF583E493F2
:100E2B0054047002FF227F012274562DF582740444
:100E3B003CF583E49354027002FF227F0122745627
:100E4B002DF58274043CF583E49354017002FF2268
:100E5B007F012274572DF58274043CF583E493547F
:100E6B00807002FF227F012274572DF58274043C9F
:100E7B00F583E49354407002FF227F012274572DB7
:100E8B00F58274043CF583E49354207002FF227FB7
:100E9B00012274572DF58274043CF583E4935410AE
:100EAB007002FF227F012274572DF58274043CF5EA
:100EBB0083E49354087002FF227F012274572DF5AF
:100ECB008274043CF583E49354047002FF227F0187
:100EDB002274572DF58274043CF583E4935402700D
:100EEB0002FF227F012274572DF58274043CF58397
:100EFB00E49354017002FF227F012274582DF58276
:100F0B0074043CF583E49354807002FF227F01222A
:030F1B007F002232
:100A1D00E50AC4540FFBE50A540FFAEB75F00AA46E
:100A2D002AF50AE50BC4540FFBE50B540FFAEB75D1
:100A3D00F00AA42AF50BE50CC4540FFBE50C540F7A
:100A4D00FAEB75F00AA42AF50CE50A2004072463D5
:100A5D00FFE433800624FFFFE434FFFE7C007D03BA
:100A6D001216178E118F1274582512F582740435D3
:100A7D0011F583E493FE5460FB7805FF08800103B4
:100A8D00D8FDFBEE541FFAEB64017006EA14F50D68
:100A9D008005EA241EF50DC3E50B940A748094803D
:100AAD00E50B500B90054893250CFFE4338015257D
:100ABD00E0243EF582E43405F583740193250CFFA3
:100ACD00E4933400CF24FFF510EF34FFF50FD3E599
:100ADD000B940274809480400EE50A54037008054F
:100AED0010E5107002050FAF0D7E00C3E5109FE5F8
:100AFD000F9E5003020B83E5109FF510E50F9EF539
:100B0D000F750B01750E01120DC5EF24FF9205C275
:100B1D00062005047B1D80027B1E74562512F5826E
:100B2D0074043511F583E49354F0FA7804FF0880CA
:100B3D000103D8FDFAEBFF7E00C3E5109FE50F9E84
:100B4D00402FE5109FF510E50F9EF50F050EE50BF7
:100B5D00B50209B206200606050B8002050B120D23
:100B6D00C5EF24FF92052005047B1D80C87B1E80E8
:100B7D00C4E510020C0EC3E50D9510F50DE50A70D8
:100B8D0007750A63D2048002150A74FD2512F51249
:100B9D0074FF3511F511750B0CFE74562512F58287
:100BAD0074043EF583E49354F0FA7804FF08800151
:100BBD0003D8FDFA7005750E0C8003750E0DC20677
:100BCD00120DC5EF24FF92052005047B1D80027BCD
:100BDD001EE50DD39B4026E50D9BF50D150E20064C
:100BED0002150BE50BB50202B206120DC5EF24FF7F
:100BFD0092052005047B1D80D87B1E80D4C3EB9508
:100C0D000D04F50CA2049200E50A75F00A84FB7838
:100C1D0004FF08800123D8FDFBE50A75F00A84AABC
:0B0C2D00F0EB4AF531850B2E850C34EE
:010C38002299
:10143E001217CFE509C4540FFFE509540FFEEF75DF
:10144E00F00AA42EF509E50AC4540FFFE50A540F5D
:10145E00FEEF75F00AA42EF50AE50BC4540FFFE556
:10146E000B540FFEEF75F00AA42EF50B2004067434
:10147E00642509F509E5091313543F250975F0078D
:10148E0084AEF0E50B2EFFE50A900557932FFEE58F
:10149E00095403700CE50AC39403748094805001C0
:0914AE001EEE75F0078485F0269E
:0114B7002212
:10152B001217CF7F801217D67BFF7A007914121710
:10153B007C7F8D1218508F29E52912180DE5291281
:10154B00180E7F891218508F257A00791712177C85
:10155B00D204E525121821D204E5251218227F8723
:10156B001218508F227A00791712177CD204E522B9
:10157B00121821D204E522540F2430F50A02182840
:101322007F87121850AD077F89121850AC077F8D46
:10133200121850C2048F098C0A8D0B12143EAE266D
:101342007F871217D6EE70097BFF7A007919121780
:101352007CEE64067003121776EE640570097BFF5B
:101362007A00791F12177CEE640470097BFF7A0001
:10137200792212177CEE6403700A7FC81218137F59
:10138200FD121813EE640270097BFF7A00792512B0
:10139200177CAF06EF640170097BFF7A007928128F
:1013A200177C7F851217D67BFF7A00792B02177C78
:10128A007F851218508F2CE52CC4540F75F040A49A
:10129A002436F9740135F0FA7BFF7D037F01120FC2
:1012AA002FE52C540F75F040A42436F9740135F05B
:1012BA00FA7BFF7F02120F2F7BFF7A0379B67F0337
:1012CA00120F2F7F831218508F2DE52D7F04120FD6
:1012DA001EE52D540F75F040A42436F9740135F03B
:1012EA00FA7BFF7F05120F2F7BFF7A0379B67F0601
:1012FA00120F2F7F811218508F2AE52A7F07120FAB
:10130A001EE52A540F75F040A42436F9740135F00D
:08131A00FA7BFF7F08020F2F90
:100564007F881217D6E531C4540F75F00AA4FFE54D
:1005740031540F2FFF75F00C84AEF08E0AEF75F036
:100584000A84ADF08E0BAF05EFB40A0040030206F7
:100594003D90059CF82828730205BA0205C7020598
:1005A400D40205E10205EE0205FB02060802061567
:1005B40002062202062F7F901217D67BFF7A00795B
:1005C4003080737F901217D67BFF7A007933806670
:1005D4007F901217D67BFF7A00793680597F90126C
:1005E40017D67BFF7A007939804C7F901217D67B1F
:1005F400FF7A00793C803F7F901217D67BFF7A0008
:10060400793F80327F901217D67BFF7A007942803F
:10061400257F901217D67BFF7A00794580187F904A
:100624001217D67BFF7A007948800B7F901217D679
:100634007BFF7A00794B12177CE50BB40C00400366
:1006440002071190064EF8282873020672020680EB
:1006540002068E02069B0206A80206B50206C20224
:1006640006CF0206DC0206E90206F60207037F91C2
:100674001217D67BFF7A00794E02070E7F9112176C
:10068400D67BFF7A00795102070E7F911217D67B31
:10069400FF7A00795480737F911217D67BFF7A001A
:1006A400795780667F911217D67BFF7A00795A803A
:1006B400597F911217D67BFF7A00795D804C7F9128
:1006C4001217D67BFF7A007960803F7F911217D68C
:1006D4007BFF7A00796380327F911217D67BFF7A91
:1006E40000796680257F911217D67BFF7A0079699D
:1006F40080187F911217D67BFF7A00796C800B7F6C
:10070400911217D67BFF7A00796F12177CE50AB431
:100714000C0040030207E5900722F828287302071B
:100724004602075402076202076F02077C02078928
:100734000207960207A30207B00207BD0207CA0216
:1007440007D77F921217D67BFF7A0079720207E2ED
:100754007F921217D67BFF7A0079770207E27F92A5
:100764001217D67BFF7A00797C80737F921217D69A
:100774007BFF7A00798180667F921217D67BFF7A9D
:1007840000798680597F921217D67BFF7A00798B85
:10079400804C7F921217D67BFF7A007990803F7F3E
:1007A400921217D67BFF7A00799580327F921217C6
:1007B400D67BFF7A00799A80257F921217D67BFF29
:1007C4007A00799F80187F921217D67BFF7A00797E
:1007D400A4800B7F921217D67BFF7A0079A9121797
:0107E4007C98
:0107E50022F1
:1007E600A201920485290A85250B85220C120A1D71
:1007F6001217CF7F901217D6E52E640170097BFF82
:100806007A0079AE12177CE52E640270097BFF7AB6
:1008160000792512177CE52E6403700A7FC812182A
:10082600137FFD121813E52E640470097BFF7A000E
:10083600792212177CE52E640570097BFF7A007910
:100846001F12177CE52E64067003121776E52E64D8
:100856000770097BFF7A0079B112177CE52E6408D0
:1008660070097BFF7A0079B412177CE52E64097053
:10087600097BFF7A0079B712177CE52E640A7009A6
:100886007BFF7A0079BA12177CE52E640B70097B20
:10089600FF7A0079BD12177CE52E640C70097BFF88
:1008A6007A0079C012177C7BFF7A0079C312177C15
:1008B600E53475F00A8470077A0079C612177CE56C
:1008C6003475F00A84FF7E006401702FE53475F0FC
:1008D6000A84E5F070047D0180027D00EF64014E1C
:1008E60070047F0180027F00EF5D7BFF60067A0067
:1008F60079C680047A0079BA12177CE53475F00A55
:1009060084FF7E006402702FE53475F00A84E5F0FA
:1009160070047D0180027D00EF64024E70047F0149
:1009260080027F00EF5D7BFF60067A0079258004F8
:100936007A0079C912177CE53475F00A846403706D
:100946000A7FC81218137FFD121813E53475F00AD2
:1009560084E5F0640170097BFF7A00792812177C20
:10096600E53475F00A84E5F0640270097BFF7A00CD
:10097600792512177CE53475F00A84E5F064037076
:100986000A7FC81218137FFD121813E53475F00A92
:1009960084E5F0640470097BFF7A00792212177CE3
:1009A600E53475F00A84E5F0640570097BFF7A008A
:1009B600791F12177CE53475F00A84E5F064067039
:1009C60003121776E53475F00A84E5F064077009BA
:1009D6007BFF7A0079B112177CE53475F00A84E55D
:1009E600F0640870097BFF7A0079B412177CE5344D
:1009F60075F00A84E5F0640970097BFF7A0079B71F
:100A060012177CE53475F00A84E5F070097BFF7AED
:070A16000079BA12177C22DF
:1017B3007F811218508F09E509540F6405700312D5
:0B17C30007E6E509540F7003120564EF
:0117CE0022F8
:1016F4007F811217D67BFF7A0079CC12177C7F90FA
:101704001217D67A0079D712177C7F881217D67AE7
:101714000079E412177C7F981217D67A0079F402C4
:02172400177C30
:041796007F147E003E
:10179A00EF1F70011E144E600FE4FDEDC3947D74BB
:0817AA0080948050EB0D80F3E8
:0117B2002214
:06103B00752F3BE4F527D0
:101041007F8D1218508F3A7F891218508F357F8704
:101051001218508F307F8B1218508F26C204750AD8
:10106100801218287BFF7A00791412177CE53A1256
:10107100180DE53A12180E7A01790512177CE5353B
:1010810012180DE53512180E7A0079C312177CE596
:101091003012180DE53012180E7A00791912177CEA
:1010A1007F85121850EF653260077F851218508FC7
:1010B10032C204750A91121828E53212180DE53270
:1010C10012180E7BFF7A01790812177C7F831218A0
:1010D10050EF653360077F831218508F33E5331269
:1010E100180DE53312180E7BFF7A01790B12177C6C
:1010F1007F81121850EF653760077F811218508F7A
:1011010037E53712180DE53712180E7BFF7A017992
:041111000E02177C37
:100C39008F091217CFC204750A981218287BFF7AF8
:100C490001791112177CE509640570137A01791885
:100C590012177C75398012103B1214B8121041E535
:100C690009640470157BFF7A01791D12177C7539A7
:100C79008212103B1214B8121041E5096403703353
:100C89007BFF7A01792212177C753984752F17E455
:100C9900F527AF39EF3395E0FED3EF940CEE64807E
:100CA9009480400674F42539F5391210411214B8AC
:100CB900121041E50964026003020D847BFF7A0189
:100CC900792712177C7539867F891218508F35E577
:100CD90035C4540FF523E535540FF524E52375F094
:100CE9000AA42524F5357F8D1218508F3AE53AC4A8
:100CF900540FF523E53A540FF524E52375F00AA4BA
:100D09002524F53AAF357E00EF6402700CE53A54BC
:100D1900036006752F1C752701EF64024E700CE500
:100D29003A54037006752F1D752701AF35EF64011D
:100D3900601EEF64036019EF64056014EF640760D7
:100D49000FEF6408600AEF640A6005EF640C70062F
:100D5900752F1F752701AF35EF6404600FEF640627
:100D6900600AEF64096005EF640B7006752F1E7544
:100D790027011210411214B8121041E509640170DB
:100D89001B7BFF7A01792C12177C753988752F0C1A
:100D99007527011210411214B8121041E509701B90
:100DA9007BFF7A01793112177C75398C752F63E4D1
:0C0DB900F5271210411214B8121041224C
:1014B800E53904FF121850EFC4540F75F00AA4FD63
:1014C800E53904FF121850EF540F2DF52820820239
:1014D80005282083021528D3E52F6480F8E52864C1
:1014E80080984003852728C3E5276480F8E52864A9
:1014F80080985003852F28E4FD7F8E121834E52844
:1015080075F00A1215DCC454F0FFE52875F00A12CC
:1015180015DCAEF0EF2EFDAF391218347D807F8ECA
:0315280002183472
:10111500E4F5081217E47FA07E0F12179A121671D4
:10112500D280D281D282D283C2B720030C12152B72
:101135001217B312128A1213222080341217962026
:10114500801B3003180508C3E50894077480948054
:101155004003E4F5083080FDAF08120C3920800DFE
:1011650020030A121671D203AF08120C393080FD24
:10117500208135121796208108300305C203E4F556
:101185000820811220030F12185D1216741217CF52
:101195001216F43081FD12185D12167412152B12F9
:1011A50013221207E63081FD20821730031412172F
:1011B50096208208300305AF08120C393082FD30C5
:1011C50082FD30830302112F20030302112F121712
:1011D50096208308300305AF08120C393083FD30A3
:0711E500830302112F80F8C3
:030000000213B236
:0C13B200787FE4F6D8FD75813A0213F94B
:1015DC00C2D530F707B2D563F0FF05F030E70CB297
:1015EC00D5F4048463F0FF05F080018430D502F457
:0215FC000422C7
:1015FE00BB010689828A83E0225002E722BBFE02EB
:09160E00E32289828A83E493221D
:10161700EF8DF0A4A8F0CF8CF0A428CE8DF0A42EE7
:02162700FE22A1
:1013BE00021115E493A3F8E493A34003F68001F21F
:1013CE0008DFF48029E493A3F85407240CC8C33330
:1013DE00C4540F4420C8834004F456800146F6DFFF
:1013EE00E4800B0102040810204080901862E47E15
:1013FE00019360BCA3FF543F30E509541FFEE493F4
:10140E00A360010ECF54C025E060A840B8E493A3BA
:10141E00FAE493A3F8E493A3C8C582C8CAC583CAE5
:10142E00F0A3C8C582C8CAC583CADFE9DEE780BE9D
:011866000081
:00000001FF
